:100000000C9446000C9465000C9465000C946500FB
:100010000C9465000C9465000C9465000C946500CC
:100020000C9465000C9465000C9465000C946500BC
:100030000C9465000C9465000C9465000C946500AC
:100040000C9467000C9465000C9465000C9465009A
:100050000C9465000C9465000C9465000C9465008C
:100060000C9465000C9465000C9465000C9465007C
:100070000C9465000C9465000C9465000C9465006C
:100080000C9465000C9465000C94650011241FBE4F
:10009000CFEFD0E1DEBFCDBF11E0A0E0B1E0E2EDF7
:1000A000FFE000E00BBF02C007900D92AE38B10731
:1000B000D9F711E0AEE8B1E001C01D92A039B10757
:1000C000E1F70E9498030C94E7070C9400001F923C
:1000D0000F920FB60F920BB60F921124DF92EF9290
:1000E000FF920F931F932F933F934F935F936F93C1
:1000F0007F938F939F93AF93BF93CF93DF93EF93B0
:10010000FF9320918B0130918C012F5F3F4F3093F3
:100110008C0120938B01C9016CEA7DE00E94E00410
:10012000009709F459C0B9C0219681E090E00E947F
:10013000180480E090E060E070E00E94B804C8011C
:100140000E94A90480E090E066E070E00E94B8049C
:10015000C7010E94A9048FEF90E7A2E08150904070
:10016000A040E1F700C00000D8BAC83CD10509F0B2
:1001700041C0C5E3D1E000E011E00F2EF1E1EF2E28
:10018000F1E0FF2EF02D81E090E00E94180480E065
:1001900090E060E070E00E94B804CE010E94A904E3
:1001A00081E090E060E070E00E94B804C8010E9425
:1001B000A90481E090E066E070E00E94B804C70105
:1001C0000E94A9048FEF93EDA0E381509040A040DE
:1001D000E1F700C00000D7CFC1E0D0E005E211E0B8
:1001E0000F2EFAE2EF2EF1E0FF2EF02D0F2EF0E8A9
:1001F000DF2EF02DB39998CF18BA81E090E00E94DD
:10020000180488E090E00E9418048FEF93E2A4EFB6
:1002100081509040A040E1F700C000008CE090E0E9
:100220000E94180480E090E060E070E00E94B80452
:1002300086E491E00E94A9048FEF93EDA0E3815042
:100240009040A040E1F700C0000080918E019091A5
:100250008F01889690938F0180938E0100D000D0FB
:1002600000D0EDB7FEB7319621E131E0ADB7BEB7B2
:1002700012963C932E93119729E031E03383228329
:10028000958384830E9407058DB79EB706960FB6A7
:10029000F8949EBF0FBE8DBF2DC2C90164EC79E0FA
:1002A0000E94E004009709F459C0B1C0219681E092
:1002B00090E00E94180480E090E060E070E00E940E
:1002C000B804C8010E94A90480E090E066E070E0F4
:1002D0000E94B804C7010E94A9048FEF90E7A2E032
:1002E00081509040A040E1F700C00000D8BAC83C5F
:1002F000D10509F040C0C5E3D1E000E011E00F2EC8
:10030000F1E1EF2EF1E0FF2EF02D81E090E00E9470
:10031000180480E090E060E070E00E94B804CE0134
:100320000E94A90481E090E060E070E00E94B804BF
:10033000C8010E94A90481E090E066E070E00E949C
:10034000B804C7010E94A9048FEF93EDA0E3815088
:100350009040A040E1F700C00000D7CFC1E0D0E05E
:1003600005E511E00F2EFAE5EF2EF1E0FF2EF02D5E
:10037000DD246894D6F8B29999CF18BA81E090E05C
:100380000E94180480E090E060E070E00E94B804F1
:1003900085E691E00E94A90480E090E066E070E0CC
:1003A0000E94B8048AE691E00E94A9048FEF93EDC1
:1003B000A0E381509040A040E1F700C00000809190
:1003C0008E0190918F014E9690938F0180938E01B4
:1003D00000D000D000D0EDB7FEB7319621E131E07A
:1003E000ADB7BEB712963C932E93119729E031E03A
:1003F00033832283958384830E9407058DB79EB73C
:1004000006960FB6F8949EBF0FBE8DBF73C1C9018B
:100410006CED75E00E94E004009709F459C0B1C08A
:10042000219681E090E00E94180480E090E060E076
:1004300070E00E94B804C8010E94A90480E090E026
:1004400066E070E00E94B804C7010E94A9048FEF23
:1004500090E7A2E081509040A040E1F700C000008A
:10046000D8BAC83CD10509F040C0C5E3D1E000E0EE
:1004700011E00F2EF1E1EF2EF1E0FF2EF02D81E0E3
:1004800090E00E94180480E090E060E070E00E943C
:10049000B804CE010E94A90481E090E060E070E021
:1004A0000E94B804C8010E94A90481E090E066E0BF
:1004B00070E00E94B804C7010E94A9048FEF93ED79
:1004C000A0E381509040A040E1F700C00000D7CFEA
:1004D000C1E0D0E005E511E00F2EF5E7EF2EF1E0E9
:1004E000FF2EF02DDD246894D5F8B19999CF18BA74
:1004F00081E090E00E94180480E090E060E070E00D
:100500000E94B80485E691E00E94A90480E090E092
:1005100066E070E00E94B8048AE691E00E94A904B7
:100520008FEF93EDA0E381509040A040E1F700C031
:10053000000080918E0190918F01449690938F01DD
:1005400080938E0100D000D000D0EDB7FEB7319679
:1005500021E131E0ADB7BEB712963C932E931197CF
:1005600029E031E033832283958384830E94070549
:100570008DB79EB706960FB6F8949EBF0FBE8DBF7F
:10058000B9C0C90164EF71E00E94E004009709F46A
:1005900059C0B0C0219681E090E00E94180480E02C
:1005A00090E060E070E00E94B804C8010E94A904D5
:1005B00080E090E066E070E00E94B804C7010E940D
:1005C000A9048FEF90E7A2E081509040A040E1F7AE
:1005D00000C00000D8BAC83CD10509F040C0C5E34E
:1005E000D1E000E011E00F2EF1E1EF2EF1E0FF2E5F
:1005F000F02D81E090E00E94180480E090E060E03F
:1006000070E00E94B804CE010E94A90481E090E04D
:1006100060E070E00E94B804C8010E94A90481E073
:1006200090E066E070E00E94B804C7010E94A9044F
:100630008FEF93EDA0E381509040A040E1F700C020
:100640000000D7CFC1E0D0E005E211E00F2EF0E8C6
:10065000EF2EF1E0FF2EF02DDD246894D4F8B09950
:1006600099CF18BA81E090E00E94180480E090E0F1
:1006700060E070E00E94B80485E691E00E94A90461
:1006800080E090E066E070E00E94B8048AE691E0C5
:100690000E94A9048FEF93EDA0E381509040A04009
:1006A000E1F700C0000080918E0190918F010A96C1
:1006B00090938F0180938E0100D000D000D0EDB7D1
:1006C000FEB7319621E131E0ADB7BEB712963C934B
:1006D0002E93119729E031E033832283958384831D
:1006E0000E9407058DB79EB706960FB6F8949EBF79
:1006F0000FBE8DBF84E682BF81E088BFFF91EF917E
:10070000DF91CF91BF91AF919F918F917F916F9129
:100710005F914F913F912F911F910F91FF90EF901B
:10072000DF900F900BBE0F900FBE0F901F9018958B
:10073000CF92DF92EF92FF920F931F93CF93DF93AD
:1007400080EF87BB18BA13BE84E682BF81E087BF03
:10075000789483B7876083BF0E9432040E944D045F
:100760000F2EFCE0EF2EF1E0FF2EF02DC0E0D1E0E7
:1007700001E111E00F2EF0E2CF2EF1E0DF2EF02D9F
:1007800081E090E00E94180480E090E060E070E07A
:100790000E94B804C7010E94A90481E090E060E0D3
:1007A00070E00E94B804CE010E94A90481E090E0AC
:1007B00066E070E00E94B804C8010E94A9048FEFAF
:1007C00097EAA1E681509040A040E1F700C0000008
:1007D00081E090E00E94180480E090E060E070E02A
:1007E0000E94B804C6010E94A90481E090E060E084
:1007F00070E00E94B804CE010E94A90481E090E05C
:1008000066E070E00E94B804C8010E94A9048FEF5E
:1008100097EAA1E681509040A040E1F700C00000B7
:10082000AFCF8FE891E00197F1F700C00000089585
:100830001F93CF93DF93182FC0E0D1E281E088832C
:100840000E9411041093002018821150123030F4CD
:100850008FE39FE10197F1F700C00000DF91CF9196
:100860001F91089580E885BF94E490936D00809374
:100870006C0080EF87BB18BA11BA12BA8FEF82B939
:1008800013B810926100109262008FE180936400AF
:1008900010920021109200200895CF93DF9382E000
:1008A000809300218FE39FE10197F1F700C00000E2
:1008B0008FE59AEE0197F1F700C00000C8E1D4E09F
:1008C00080E390E0FE0109958FE19EE40197F1F746
:1008D00000C0000080E390E0FE0109958FE99FE0F1
:1008E0000197F1F700C0000082E390E0FE01099556
:1008F00088E390E0FE01099588E090E0FE0109950B
:1009000081E090E0FE01099586E090E0FE01099506
:100910008CE090E0FE010995DF91CF9108951F933F
:10092000CF93DF93182F0E941104C0E0D1E283E03F
:1009300088830E9411041093002082E0888387EC52
:1009400090E00197F1F700C00000DF91CF911F9177
:100950000895CF93DF93EC018881882331F02196AD
:100960000E948F0489918823D9F7DF91CF91089550
:100970008295880F880F807C860F80680E941804FB
:1009800008950F931F93CF93DF93162F072F880F90
:10099000880F880F80640E941804802F012F182F61
:1009A000C0E0D0E0F80181918F010E948F04219670
:1009B000C830D105B9F7DF91CF911F910F910895FC
:1009C00097FB092E07260AD077FD04D00CD006D05D
:1009D00000201AF4709561957F4F0895F6F7909571
:1009E00081959F4F0895AA1BBB1B51E107C0AA1F09
:1009F000BB1FA617B70710F0A61BB70B881F991FC0
:100A00005A95A9F780959095BC01CD0108950F9353
:100A10001F93DF93CF93CDB7DEB72E970FB6F89421
:100A2000DEBF0FBECDBF0D891E8986E08C831A8381
:100A300009838FEF9FE79E838D839E01275E3F4F43
:100A4000CE0101966F89788DA9010E943705EF814B
:100A5000F885E00FF11F10822E960FB6F894DEBFD6
:100A60000FBECDBFCF91DF911F910F9108952F92AF
:100A70003F924F925F926F927F928F929F92AF922E
:100A8000BF92CF92DF92EF92FF920F931F93DF936B
:100A9000CF93CDB7DEB72C970FB6F894DEBF0FBE5D
:100AA000CDBF6C011B018A01FC0117821682838174
:100AB00081FFD1C12E010894411C511CF601938184
:100AC000F10193FD859193FF81911F01882309F422
:100AD000BEC1853239F493FD859193FF81911F0149
:100AE000853229F490E0B6010E945D07E7CFEE243D
:100AF000FF2420E02032B0F48B3269F08C3228F4ED
:100B0000803251F0833271F40BC08D3239F0803372
:100B100049F421602CC02260246029C0286027C0CD
:100B2000206125C027FD2CC0382F30533A3098F46F
:100B300026FF08C08E2D880FE82EEE0CEE0CE80E76
:100B4000E30E15C08F2D880FF82EFF0CFF0CF80E4A
:100B5000F30E20620CC08E3221F426FD78C1206491
:100B600006C08C3611F4206802C0883649F4F101C1
:100B700093FD859193FF81911F01882309F0BACFDE
:100B8000982F9554933018F09052933028F40C5FBE
:100B90001F4FFFE3F9830DC0833631F0833771F0C7
:100BA000833509F060C022C0F801808189830E5F1F
:100BB0001F4F420171E0A72EB12C16C062E0662ED5
:100BC000712C600E711EF8018080918026FF03C099
:100BD0006E2D70E002C06FEF7FEFC4012C870E9482
:100BE00052075C0183012C852F7717C052E0652ED8
:100BF000712C600E711EF8018080918026FF03C069
:100C00006E2D70E002C06FEF7FEFC4012C870E9451
:100C100047075C012C852068830123FD20C008C0A4
:100C200080E290E0B6012C870E945D07FA942C8543
:100C30008F2D90E0A816B90698F311C0F40127FD96
:100C4000859127FF81914F0190E0B6012C870E948A
:100C50005D072C85F110FA940894A108B108A1143D
:100C6000B10461F7F1C0843611F0893649F527FFE8
:100C700008C0F80160817181828193810C5F1F4FF0
:100C800009C0F80160817181882777FD8095982FD0
:100C90000E5F1F4F4FE6B42EB22297FF09C090950A
:100CA0008095709561957F4F8F4F9F4FF0E8BF2AD9
:100CB000A2012AE030E00E948907782E741845C00E
:100CC000853731F43FEEB32EB2222AE030E025C062
:100CD00099EFB92EB2228F36C1F0803720F48835D3
:100CE00009F0B5C00DC0803721F0883709F0AFC0DA
:100CF00002C020E1B22AB4FE0BC084E0B82A08C0CA
:100D0000B4FE09C0E6E0BE2A06C028E030E005C017
:100D100020E130E002C020E132E0B7FE08C0F80177
:100D200060817181828193810C5F1F4F07C0F80140
:100D30006081718180E090E00E5F1F4FA2010E94F0
:100D40008907782E7418FFE7BF22B6FE0BC02EEF7E
:100D5000B2227E1438F4B4FE07C0B2FC05C08FEE98
:100D6000B82202C0A72C01C0AE2C8B2D90E0B4FE9F
:100D70000DC0FE01E70DF11D2081203319F4E9EECD
:100D8000BE2209C0A394B2FE06C004C0867890704B
:100D9000009709F0A3948B2C9924B3FC14C0B0FEE7
:100DA0000FC0AF1428F4E72CEF0CEA18AF2C08C0E2
:100DB000E72C06C080E290E0B6010E945D07A39494
:100DC000AF14C0F304C0AF1410F4FA1801C0FF242C
:100DD00084FE0FC080E390E0B6010E945D0782FEB2
:100DE0001FC081FE03C088E590E010C088E790E056
:100DF0000DC0C40186789070009791F081FC02C00C
:100E000080E201C08BE2B7FC8DE290E0B6010E9467
:100E10005D0706C080E390E0B6010E945D07EA949A
:100E20007E14C0F37A94F201E70DF11D808190E009
:100E3000B6010E945D077720A9F706C080E290E026
:100E4000B6010E945D07FA94FF20C1F737CEF60184
:100E50002681378102C02FEF3FEFC9012C960FB6D4
:100E6000F894DEBF0FBECDBFCF91DF911F910F91E0
:100E7000FF90EF90DF90CF90BF90AF909F908F90BA
:100E80007F906F905F904F903F902F900895FC015E
:100E90000590615070400110D8F7809590958E0FA5
:100EA0009F1F0895FC016150704001900110D8F718
:100EB000809590958E0F9F1F08950F931F93CF934A
:100EC000DF938C01EB018B8181FF1BC082FF0DC082
:100ED0002E813F818C819D812817390764F4E88138
:100EE000F9810193F983E88306C0E885F985802FAD
:100EF0000995009731F48E819F8101969F838E839F
:100F000002C00FEF1FEFC801DF91CF911F910F912A
:100F10000895FA01AA27283051F1203181F1E8948F
:100F20006F936E7F6E5F7F4F8F4F9F4FAF4FB1E0DC
:100F30003ED0B4E03CD0670F781F891F9A1FA11DD7
:100F4000680F791F8A1F911DA11D6A0F711D811DD8
:100F5000911DA11D20D009F468943F912AE0269F9D
:100F600011243019305D3193DEF6CF010895462FFC
:100F70004770405D4193B3E00FD0C9F7F6CF462FDD
:100F80004F70405D4A3318F0495D31FD4052419346
:100F900002D0A9F7EACFB4E0A69597958795779503
:100FA0006795BA95C9F700976105710508959B018A
:100FB000AC010A2E06945795479537952795BA9513
:100FC000C9F7620F731F841F951FA01D0895F89421
:020FD000FFCF51
:100FD20073636F7265203A20002564006F5F5F6F54
:100FE20000300000000000000000000000000000CF
:100FF2003E5F5F3C002D5F5F2D005B74697265642C
:101002002D5F2D5D00785F5F7820202047414D45A0
:10101200204F564552003C676F6F64206D6F726EB1
:10102200696E673E00545F5F54005B64646F6E6775
:101032002121215D005E5F5F5E005B7468616E6B03
:10104200735E5E5D005B68756E67727954545D0015
:0E1052005B626F72696E672E2E5D00010000FA
:00000001FF
